{
  "contractName": "Voting",
  "abi": [
    {
      "inputs": [],
      "stateMutability": "nonpayable",
      "type": "constructor"
    },
    {
      "anonymous": false,
      "inputs": [
        {
          "indexed": false,
          "internalType": "string",
          "name": "description",
          "type": "string"
        }
      ],
      "name": "LogNewRegistration",
      "type": "event"
    },
    {
      "anonymous": false,
      "inputs": [
        {
          "indexed": false,
          "internalType": "string",
          "name": "description",
          "type": "string"
        }
      ],
      "name": "LogNewVote",
      "type": "event"
    },
    {
      "inputs": [],
      "name": "Vote",
      "outputs": [],
      "stateMutability": "nonpayable",
      "type": "function"
    },
    {
      "inputs": [],
      "name": "Status",
      "outputs": [
        {
          "internalType": "string",
          "name": "",
          "type": "string"
        }
      ],
      "stateMutability": "view",
      "type": "function",
      "constant": true
    },
    {
      "inputs": [],
      "name": "Register",
      "outputs": [],
      "stateMutability": "nonpayable",
      "type": "function"
    }
  ],
  "bytecode": "0x608060405234801561001057600080fd5b5060008060006101000a81548160ff0219169083600181111561003657610035610040565b5b021790555061006f565b7f4e487b7100000000000000000000000000000000000000000000000000000000600052602160045260246000fd5b6108598061007e6000396000f3fe608060405234801561001057600080fd5b50600436106100415760003560e01c806319e5bf3a1461004657806345f09ce9146100505780636bf52ffa1461006e575b600080fd5b61004e610078565b005b610058610207565b60405161006591906104fe565b60405180910390f35b61007661022b565b005b6000600181111561008c5761008b610520565b5b60008054906101000a900460ff1660018111156100ac576100ab610520565b5b146100ec576040517f08c379a00000000000000000000000000000000000000000000000000000000081526004016100e39061059b565b60405180910390fd5b600160003373ffffffffffffffffffffffffffffffffffffffff1673ffffffffffffffffffffffffffffffffffffffff16815260200190815260200160002060009054906101000a900460ff1615610179576040517f08c379a00000000000000000000000000000000000000000000000000000000081526004016101709061062d565b60405180910390fd5b60018060003373ffffffffffffffffffffffffffffffffffffffff1673ffffffffffffffffffffffffffffffffffffffff16815260200190815260200160002060006101000a81548160ff0219169083151502179055507f96a485d5dad0d75db6b6682c885136e6c9b01c18d0d602654b852a3be98968826040516101fd90610699565b60405180910390a1565b606060008060009054906101000a900460ff1690506102258161038c565b91505090565b600160003373ffffffffffffffffffffffffffffffffffffffff1673ffffffffffffffffffffffffffffffffffffffff16815260200190815260200160002060009054906101000a900460ff166102b7576040517f08c379a00000000000000000000000000000000000000000000000000000000081526004016102ae9061072b565b60405180910390fd5b600060018111156102cb576102ca610520565b5b60008054906101000a900460ff1660018111156102eb576102ea610520565b5b1461032b576040517f08c379a000000000000000000000000000000000000000000000000000000000815260040161032290610797565b60405180910390fd5b60016000806101000a81548160ff021916908360018111156103505761034f610520565b5b02179055507ffafeab537c3f4b2afed07fa8fc561ab1617d6456c485eaad4b3b6035cdc25ee460405161038290610803565b60405180910390a1565b60608160018111156103a1576103a0610520565b5b600060018111156103b5576103b4610520565b5b036103f7576040518060400160405280600a81526020017f52656769737465726564000000000000000000000000000000000000000000008152509050610460565b81600181111561040a57610409610520565b5b60018081111561041d5761041c610520565b5b0361045f576040518060400160405280600581526020017f566f7465640000000000000000000000000000000000000000000000000000008152509050610460565b5b919050565b600081519050919050565b600082825260208201905092915050565b60005b8381101561049f578082015181840152602081019050610484565b838111156104ae576000848401525b50505050565b6000601f19601f8301169050919050565b60006104d082610465565b6104da8185610470565b93506104ea818560208601610481565b6104f3816104b4565b840191505092915050565b6000602082019050818103600083015261051881846104c5565b905092915050565b7f4e487b7100000000000000000000000000000000000000000000000000000000600052602160045260246000fd5b7f566f74696e672068617320616c72656164792073746172746564000000000000600082015250565b6000610585601a83610470565b91506105908261054f565b602082019050919050565b600060208201905081810360008301526105b481610578565b9050919050565b7f596f75206861766520616c7265616479207265676973746572656420746f207660008201527f6f74650000000000000000000000000000000000000000000000000000000000602082015250565b6000610617602383610470565b9150610622826105bb565b604082019050919050565b600060208201905081810360008301526106468161060a565b9050919050565b7f596f7520617265206e6f77207265676973746572656420746f20766f74650000600082015250565b6000610683601e83610470565b915061068e8261064d565b602082019050919050565b600060208201905081810360008301526106b281610676565b9050919050565b7f596f75206e65656420746f206265207265676973746572656420746f20766f7460008201527f6500000000000000000000000000000000000000000000000000000000000000602082015250565b6000610715602183610470565b9150610720826106b9565b604082019050919050565b6000602082019050818103600083015261074481610708565b9050919050565b7f566f74696e672068617320616c726561647920656e6465640000000000000000600082015250565b6000610781601883610470565b915061078c8261074b565b602082019050919050565b600060208201905081810360008301526107b081610774565b9050919050565b7f596f757220766f746520686173206265656e2063617374656400000000000000600082015250565b60006107ed601983610470565b91506107f8826107b7565b602082019050919050565b6000602082019050818103600083015261081c816107e0565b905091905056fea26469706673582212202a5454b13e3457cb76efb2b1dcb62f90f1d36438c4467438e768cda24fff466764736f6c634300080d0033",
  "immutableReferences": {},
  "source": "pragma solidity >=0.4.25 <0.9.0;\n\ncontract Voting {\n    // Our predefined values for vote status listed as enums\n    enum VoteStatus { Registered, Voted }\n    // Save enum VoteStatus in variable status\n    VoteStatus private status;\n\n    // This creates a mapping of address type to bool type, which can be used to keep track of whether an address has already registered to vote or not\n    mapping(address => bool) registeredVoters;\n\n    // Event to launch when vote is registered\n    event LogNewRegistration(string description);\n\n    // Event to launch when vote is casted\n    event LogNewVote(string description);\n\n    // This initializes our contract state (sets enum to Registered once the program starts)\n    constructor() public {\n        status = VoteStatus.Registered;\n    }\n\n    // Function to change vote status to Voted\n    function Vote() public {\n    require(registeredVoters[msg.sender], \"You need to be registered to vote\");\n    require(status == VoteStatus.Registered, \"Voting has already ended\");\n    status = VoteStatus.Voted;\n    emit LogNewVote(\"Your vote has been casted\");\n    }\n\n\n    // Function to get the status of the vote\n    function getStatus(VoteStatus _status) internal pure returns (string memory) {\n        // Check the current status and return the correct name\n        if (VoteStatus.Registered == _status) return \"Registered\";\n        if (VoteStatus.Voted == _status) return \"Voted\";\n    }\n\n    // Get status of your vote\n    function Status() public view returns (string memory) {\n        VoteStatus _status = status;\n        return getStatus(_status);\n    }\n\n    // Function to register new voter\n    function Register() public {\n    require(status == VoteStatus.Registered, \"Voting has already started\");\n    require(!registeredVoters[msg.sender], \"You have already registered to vote\");\n    registeredVoters[msg.sender] = true;\n    emit LogNewRegistration(\"You are now registered to vote\");\n}\n}",
  "sourcePath": "/home/nb-mlazarev/maga/blockchain/newSolidityProject/contracts/Voting.sol",
  "compiler": {
    "name": "solc",
    "version": "0.8.13+commit.abaa5c0e.Emscripten.clang"
  },
  "schemaVersion": "3.4.13",
  "updatedAt": "2023-03-23T14:04:18.196Z",
  "networkType": "ethereum",
  "devdoc": {
    "kind": "dev",
    "methods": {},
    "version": 1
  },
  "userdoc": {
    "kind": "user",
    "methods": {},
    "version": 1
  }
}